{
  "_format": "hh-sol-artifact-1",
  "contractName": "MonadBeat",
  "sourceName": "contracts/MonadBeat.sol",
  "abi": [
    {
      "inputs": [],
      "stateMutability": "nonpayable",
      "type": "constructor"
    },
    {
      "inputs": [],
      "name": "AlreadyRegistered",
      "type": "error"
    },
    {
      "inputs": [],
      "name": "AlreadyVotedSame",
      "type": "error"
    },
    {
      "inputs": [
        {
          "internalType": "address",
          "name": "sender",
          "type": "address"
        },
        {
          "internalType": "uint256",
          "name": "tokenId",
          "type": "uint256"
        },
        {
          "internalType": "address",
          "name": "owner",
          "type": "address"
        }
      ],
      "name": "ERC721IncorrectOwner",
      "type": "error"
    },
    {
      "inputs": [
        {
          "internalType": "address",
          "name": "operator",
          "type": "address"
        },
        {
          "internalType": "uint256",
          "name": "tokenId",
          "type": "uint256"
        }
      ],
      "name": "ERC721InsufficientApproval",
      "type": "error"
    },
    {
      "inputs": [
        {
          "internalType": "address",
          "name": "approver",
          "type": "address"
        }
      ],
      "name": "ERC721InvalidApprover",
      "type": "error"
    },
    {
      "inputs": [
        {
          "internalType": "address",
          "name": "operator",
          "type": "address"
        }
      ],
      "name": "ERC721InvalidOperator",
      "type": "error"
    },
    {
      "inputs": [
        {
          "internalType": "address",
          "name": "owner",
          "type": "address"
        }
      ],
      "name": "ERC721InvalidOwner",
      "type": "error"
    },
    {
      "inputs": [
        {
          "internalType": "address",
          "name": "receiver",
          "type": "address"
        }
      ],
      "name": "ERC721InvalidReceiver",
      "type": "error"
    },
    {
      "inputs": [
        {
          "internalType": "address",
          "name": "sender",
          "type": "address"
        }
      ],
      "name": "ERC721InvalidSender",
      "type": "error"
    },
    {
      "inputs": [
        {
          "internalType": "uint256",
          "name": "tokenId",
          "type": "uint256"
        }
      ],
      "name": "ERC721NonexistentToken",
      "type": "error"
    },
    {
      "inputs": [],
      "name": "EmptyString",
      "type": "error"
    },
    {
      "inputs": [],
      "name": "InvalidPeakTime",
      "type": "error"
    },
    {
      "inputs": [],
      "name": "NotRegistered",
      "type": "error"
    },
    {
      "inputs": [
        {
          "internalType": "address",
          "name": "owner",
          "type": "address"
        }
      ],
      "name": "OwnableInvalidOwner",
      "type": "error"
    },
    {
      "inputs": [
        {
          "internalType": "address",
          "name": "account",
          "type": "address"
        }
      ],
      "name": "OwnableUnauthorizedAccount",
      "type": "error"
    },
    {
      "inputs": [],
      "name": "ReentrancyGuardReentrantCall",
      "type": "error"
    },
    {
      "inputs": [],
      "name": "TrackDoesNotExist",
      "type": "error"
    },
    {
      "anonymous": false,
      "inputs": [
        {
          "indexed": true,
          "internalType": "address",
          "name": "owner",
          "type": "address"
        },
        {
          "indexed": true,
          "internalType": "address",
          "name": "approved",
          "type": "address"
        },
        {
          "indexed": true,
          "internalType": "uint256",
          "name": "tokenId",
          "type": "uint256"
        }
      ],
      "name": "Approval",
      "type": "event"
    },
    {
      "anonymous": false,
      "inputs": [
        {
          "indexed": true,
          "internalType": "address",
          "name": "owner",
          "type": "address"
        },
        {
          "indexed": true,
          "internalType": "address",
          "name": "operator",
          "type": "address"
        },
        {
          "indexed": false,
          "internalType": "bool",
          "name": "approved",
          "type": "bool"
        }
      ],
      "name": "ApprovalForAll",
      "type": "event"
    },
    {
      "anonymous": false,
      "inputs": [
        {
          "indexed": true,
          "internalType": "address",
          "name": "artist",
          "type": "address"
        },
        {
          "indexed": false,
          "internalType": "string",
          "name": "name",
          "type": "string"
        }
      ],
      "name": "ArtistRegistered",
      "type": "event"
    },
    {
      "anonymous": false,
      "inputs": [
        {
          "indexed": false,
          "internalType": "uint256",
          "name": "_fromTokenId",
          "type": "uint256"
        },
        {
          "indexed": false,
          "internalType": "uint256",
          "name": "_toTokenId",
          "type": "uint256"
        }
      ],
      "name": "BatchMetadataUpdate",
      "type": "event"
    },
    {
      "anonymous": false,
      "inputs": [
        {
          "indexed": false,
          "internalType": "uint256",
          "name": "_tokenId",
          "type": "uint256"
        }
      ],
      "name": "MetadataUpdate",
      "type": "event"
    },
    {
      "anonymous": false,
      "inputs": [
        {
          "indexed": true,
          "internalType": "address",
          "name": "previousOwner",
          "type": "address"
        },
        {
          "indexed": true,
          "internalType": "address",
          "name": "newOwner",
          "type": "address"
        }
      ],
      "name": "OwnershipTransferred",
      "type": "event"
    },
    {
      "anonymous": false,
      "inputs": [
        {
          "indexed": true,
          "internalType": "uint256",
          "name": "trackId",
          "type": "uint256"
        },
        {
          "indexed": true,
          "internalType": "address",
          "name": "artist",
          "type": "address"
        },
        {
          "indexed": false,
          "internalType": "string",
          "name": "title",
          "type": "string"
        },
        {
          "indexed": false,
          "internalType": "string",
          "name": "ipfsHash",
          "type": "string"
        }
      ],
      "name": "TrackMinted",
      "type": "event"
    },
    {
      "anonymous": false,
      "inputs": [
        {
          "indexed": true,
          "internalType": "address",
          "name": "from",
          "type": "address"
        },
        {
          "indexed": true,
          "internalType": "address",
          "name": "to",
          "type": "address"
        },
        {
          "indexed": true,
          "internalType": "uint256",
          "name": "tokenId",
          "type": "uint256"
        }
      ],
      "name": "Transfer",
      "type": "event"
    },
    {
      "anonymous": false,
      "inputs": [
        {
          "indexed": true,
          "internalType": "uint256",
          "name": "trackId",
          "type": "uint256"
        },
        {
          "indexed": true,
          "internalType": "address",
          "name": "voter",
          "type": "address"
        },
        {
          "indexed": false,
          "internalType": "bool",
          "name": "newIsUpvote",
          "type": "bool"
        }
      ],
      "name": "VoteChanged",
      "type": "event"
    },
    {
      "anonymous": false,
      "inputs": [
        {
          "indexed": true,
          "internalType": "uint256",
          "name": "trackId",
          "type": "uint256"
        },
        {
          "indexed": true,
          "internalType": "address",
          "name": "voter",
          "type": "address"
        },
        {
          "indexed": false,
          "internalType": "bool",
          "name": "isUpvote",
          "type": "bool"
        }
      ],
      "name": "Voted",
      "type": "event"
    },
    {
      "inputs": [
        {
          "internalType": "uint256",
          "name": "",
          "type": "uint256"
        }
      ],
      "name": "allTrackIds",
      "outputs": [
        {
          "internalType": "uint256",
          "name": "",
          "type": "uint256"
        }
      ],
      "stateMutability": "view",
      "type": "function"
    },
    {
      "inputs": [
        {
          "internalType": "address",
          "name": "to",
          "type": "address"
        },
        {
          "internalType": "uint256",
          "name": "tokenId",
          "type": "uint256"
        }
      ],
      "name": "approve",
      "outputs": [],
      "stateMutability": "nonpayable",
      "type": "function"
    },
    {
      "inputs": [
        {
          "internalType": "address",
          "name": "",
          "type": "address"
        }
      ],
      "name": "artists",
      "outputs": [
        {
          "internalType": "string",
          "name": "name",
          "type": "string"
        },
        {
          "internalType": "uint256",
          "name": "registeredAt",
          "type": "uint256"
        },
        {
          "internalType": "uint256",
          "name": "trackCount",
          "type": "uint256"
        },
        {
          "internalType": "bool",
          "name": "isRegistered",
          "type": "bool"
        }
      ],
      "stateMutability": "view",
      "type": "function"
    },
    {
      "inputs": [
        {
          "internalType": "address",
          "name": "owner",
          "type": "address"
        }
      ],
      "name": "balanceOf",
      "outputs": [
        {
          "internalType": "uint256",
          "name": "",
          "type": "uint256"
        }
      ],
      "stateMutability": "view",
      "type": "function"
    },
    {
      "inputs": [
        {
          "internalType": "uint256",
          "name": "trackId",
          "type": "uint256"
        }
      ],
      "name": "downvote",
      "outputs": [],
      "stateMutability": "nonpayable",
      "type": "function"
    },
    {
      "inputs": [],
      "name": "getAllTrackIds",
      "outputs": [
        {
          "internalType": "uint256[]",
          "name": "",
          "type": "uint256[]"
        }
      ],
      "stateMutability": "view",
      "type": "function"
    },
    {
      "inputs": [
        {
          "internalType": "uint256",
          "name": "tokenId",
          "type": "uint256"
        }
      ],
      "name": "getApproved",
      "outputs": [
        {
          "internalType": "address",
          "name": "",
          "type": "address"
        }
      ],
      "stateMutability": "view",
      "type": "function"
    },
    {
      "inputs": [
        {
          "internalType": "uint256",
          "name": "count",
          "type": "uint256"
        }
      ],
      "name": "getRandomTracks",
      "outputs": [
        {
          "internalType": "uint256[]",
          "name": "trackIds",
          "type": "uint256[]"
        }
      ],
      "stateMutability": "view",
      "type": "function"
    },
    {
      "inputs": [
        {
          "internalType": "uint256",
          "name": "count",
          "type": "uint256"
        }
      ],
      "name": "getTopTracks",
      "outputs": [
        {
          "internalType": "uint256[]",
          "name": "trackIds",
          "type": "uint256[]"
        },
        {
          "internalType": "int256[]",
          "name": "scores",
          "type": "int256[]"
        }
      ],
      "stateMutability": "view",
      "type": "function"
    },
    {
      "inputs": [
        {
          "internalType": "uint256",
          "name": "trackId",
          "type": "uint256"
        }
      ],
      "name": "getTrack",
      "outputs": [
        {
          "internalType": "address",
          "name": "artist",
          "type": "address"
        },
        {
          "internalType": "string",
          "name": "ipfsHash",
          "type": "string"
        },
        {
          "internalType": "string",
          "name": "title",
          "type": "string"
        },
        {
          "internalType": "uint32",
          "name": "peakStart",
          "type": "uint32"
        },
        {
          "internalType": "uint32",
          "name": "peakEnd",
          "type": "uint32"
        },
        {
          "internalType": "int256",
          "name": "netScore",
          "type": "int256"
        }
      ],
      "stateMutability": "view",
      "type": "function"
    },
    {
      "inputs": [
        {
          "internalType": "uint256",
          "name": "trackId",
          "type": "uint256"
        },
        {
          "internalType": "address",
          "name": "voter",
          "type": "address"
        }
      ],
      "name": "getUserVote",
      "outputs": [
        {
          "internalType": "uint8",
          "name": "",
          "type": "uint8"
        }
      ],
      "stateMutability": "view",
      "type": "function"
    },
    {
      "inputs": [
        {
          "internalType": "uint256",
          "name": "trackId",
          "type": "uint256"
        }
      ],
      "name": "getVotes",
      "outputs": [
        {
          "internalType": "uint256",
          "name": "upvotes",
          "type": "uint256"
        },
        {
          "internalType": "uint256",
          "name": "downvotes",
          "type": "uint256"
        },
        {
          "internalType": "int256",
          "name": "netScore",
          "type": "int256"
        }
      ],
      "stateMutability": "view",
      "type": "function"
    },
    {
      "inputs": [
        {
          "internalType": "address",
          "name": "owner",
          "type": "address"
        },
        {
          "internalType": "address",
          "name": "operator",
          "type": "address"
        }
      ],
      "name": "isApprovedForAll",
      "outputs": [
        {
          "internalType": "bool",
          "name": "",
          "type": "bool"
        }
      ],
      "stateMutability": "view",
      "type": "function"
    },
    {
      "inputs": [
        {
          "internalType": "address",
          "name": "artist",
          "type": "address"
        }
      ],
      "name": "isArtist",
      "outputs": [
        {
          "internalType": "bool",
          "name": "",
          "type": "bool"
        }
      ],
      "stateMutability": "view",
      "type": "function"
    },
    {
      "inputs": [
        {
          "internalType": "string",
          "name": "ipfsHash",
          "type": "string"
        },
        {
          "internalType": "string",
          "name": "title",
          "type": "string"
        },
        {
          "internalType": "uint32",
          "name": "peakStart",
          "type": "uint32"
        },
        {
          "internalType": "uint32",
          "name": "peakEnd",
          "type": "uint32"
        }
      ],
      "name": "mintTrack",
      "outputs": [
        {
          "internalType": "uint256",
          "name": "trackId",
          "type": "uint256"
        }
      ],
      "stateMutability": "nonpayable",
      "type": "function"
    },
    {
      "inputs": [],
      "name": "name",
      "outputs": [
        {
          "internalType": "string",
          "name": "",
          "type": "string"
        }
      ],
      "stateMutability": "view",
      "type": "function"
    },
    {
      "inputs": [],
      "name": "owner",
      "outputs": [
        {
          "internalType": "address",
          "name": "",
          "type": "address"
        }
      ],
      "stateMutability": "view",
      "type": "function"
    },
    {
      "inputs": [
        {
          "internalType": "uint256",
          "name": "tokenId",
          "type": "uint256"
        }
      ],
      "name": "ownerOf",
      "outputs": [
        {
          "internalType": "address",
          "name": "",
          "type": "address"
        }
      ],
      "stateMutability": "view",
      "type": "function"
    },
    {
      "inputs": [
        {
          "internalType": "string",
          "name": "name",
          "type": "string"
        }
      ],
      "name": "registerArtist",
      "outputs": [],
      "stateMutability": "nonpayable",
      "type": "function"
    },
    {
      "inputs": [],
      "name": "renounceOwnership",
      "outputs": [],
      "stateMutability": "nonpayable",
      "type": "function"
    },
    {
      "inputs": [
        {
          "internalType": "address",
          "name": "from",
          "type": "address"
        },
        {
          "internalType": "address",
          "name": "to",
          "type": "address"
        },
        {
          "internalType": "uint256",
          "name": "tokenId",
          "type": "uint256"
        }
      ],
      "name": "safeTransferFrom",
      "outputs": [],
      "stateMutability": "nonpayable",
      "type": "function"
    },
    {
      "inputs": [
        {
          "internalType": "address",
          "name": "from",
          "type": "address"
        },
        {
          "internalType": "address",
          "name": "to",
          "type": "address"
        },
        {
          "internalType": "uint256",
          "name": "tokenId",
          "type": "uint256"
        },
        {
          "internalType": "bytes",
          "name": "data",
          "type": "bytes"
        }
      ],
      "name": "safeTransferFrom",
      "outputs": [],
      "stateMutability": "nonpayable",
      "type": "function"
    },
    {
      "inputs": [
        {
          "internalType": "address",
          "name": "operator",
          "type": "address"
        },
        {
          "internalType": "bool",
          "name": "approved",
          "type": "bool"
        }
      ],
      "name": "setApprovalForAll",
      "outputs": [],
      "stateMutability": "nonpayable",
      "type": "function"
    },
    {
      "inputs": [
        {
          "internalType": "bytes4",
          "name": "interfaceId",
          "type": "bytes4"
        }
      ],
      "name": "supportsInterface",
      "outputs": [
        {
          "internalType": "bool",
          "name": "",
          "type": "bool"
        }
      ],
      "stateMutability": "view",
      "type": "function"
    },
    {
      "inputs": [],
      "name": "symbol",
      "outputs": [
        {
          "internalType": "string",
          "name": "",
          "type": "string"
        }
      ],
      "stateMutability": "view",
      "type": "function"
    },
    {
      "inputs": [
        {
          "internalType": "uint256",
          "name": "tokenId",
          "type": "uint256"
        }
      ],
      "name": "tokenURI",
      "outputs": [
        {
          "internalType": "string",
          "name": "",
          "type": "string"
        }
      ],
      "stateMutability": "view",
      "type": "function"
    },
    {
      "inputs": [],
      "name": "totalArtists",
      "outputs": [
        {
          "internalType": "uint256",
          "name": "",
          "type": "uint256"
        }
      ],
      "stateMutability": "view",
      "type": "function"
    },
    {
      "inputs": [],
      "name": "totalTracks",
      "outputs": [
        {
          "internalType": "uint256",
          "name": "",
          "type": "uint256"
        }
      ],
      "stateMutability": "view",
      "type": "function"
    },
    {
      "inputs": [
        {
          "internalType": "uint256",
          "name": "",
          "type": "uint256"
        }
      ],
      "name": "tracks",
      "outputs": [
        {
          "internalType": "address",
          "name": "artist",
          "type": "address"
        },
        {
          "internalType": "string",
          "name": "ipfsHash",
          "type": "string"
        },
        {
          "internalType": "string",
          "name": "title",
          "type": "string"
        },
        {
          "internalType": "uint32",
          "name": "peakStart",
          "type": "uint32"
        },
        {
          "internalType": "uint32",
          "name": "peakEnd",
          "type": "uint32"
        },
        {
          "internalType": "uint256",
          "name": "upvotes",
          "type": "uint256"
        },
        {
          "internalType": "uint256",
          "name": "downvotes",
          "type": "uint256"
        },
        {
          "internalType": "uint256",
          "name": "mintedAt",
          "type": "uint256"
        }
      ],
      "stateMutability": "view",
      "type": "function"
    },
    {
      "inputs": [
        {
          "internalType": "address",
          "name": "from",
          "type": "address"
        },
        {
          "internalType": "address",
          "name": "to",
          "type": "address"
        },
        {
          "internalType": "uint256",
          "name": "tokenId",
          "type": "uint256"
        }
      ],
      "name": "transferFrom",
      "outputs": [],
      "stateMutability": "nonpayable",
      "type": "function"
    },
    {
      "inputs": [
        {
          "internalType": "address",
          "name": "newOwner",
          "type": "address"
        }
      ],
      "name": "transferOwnership",
      "outputs": [],
      "stateMutability": "nonpayable",
      "type": "function"
    },
    {
      "inputs": [
        {
          "internalType": "uint256",
          "name": "trackId",
          "type": "uint256"
        }
      ],
      "name": "upvote",
      "outputs": [],
      "stateMutability": "nonpayable",
      "type": "function"
    },
    {
      "inputs": [
        {
          "internalType": "uint256",
          "name": "",
          "type": "uint256"
        },
        {
          "internalType": "address",
          "name": "",
          "type": "address"
        }
      ],
      "name": "userVotes",
      "outputs": [
        {
          "internalType": "uint8",
          "name": "",
          "type": "uint8"
        }
      ],
      "stateMutability": "view",
      "type": "function"
    }
  ],
  "bytecode": "0x60806040526001600d553480156200001657600080fd5b50336040518060400160405280600f81526020016e4d6f6e61644265617420547261636b60881b81525060405180604001604052806005815260200164135091505560da1b81525081600090816200006f9190620001be565b5060016200007e8282620001be565b5050506001600160a01b038116620000b057604051631e4fbdf760e01b81526000600482015260240160405180910390fd5b620000bb81620000c7565b5060016008556200028a565b600780546001600160a01b038381166001600160a01b0319831681179093556040519116919082907f8be0079c531659141344cd1fd0a4f28419497f9722a3daafe3b4186f6b6457e090600090a35050565b634e487b7160e01b600052604160045260246000fd5b600181811c908216806200014457607f821691505b6020821081036200016557634e487b7160e01b600052602260045260246000fd5b50919050565b601f821115620001b957600081815260208120601f850160051c81016020861015620001945750805b601f850160051c820191505b81811015620001b557828155600101620001a0565b5050505b505050565b81516001600160401b03811115620001da57620001da62000119565b620001f281620001eb84546200012f565b846200016b565b602080601f8311600181146200022a5760008415620002115750858301515b600019600386901b1c1916600185901b178555620001b5565b600085815260208120601f198616915b828110156200025b578886015182559484019460019091019084016200023a565b50858210156200027a5787850151600019600388901b60f8161c191681555b5050505050600190811b01905550565b612aeb806200029a6000396000f3fe608060405234801561001057600080fd5b50600436106101fb5760003560e01c806370a082311161011a578063b88d4fde116100ad578063f2fde38b1161007c578063f2fde38b146104b2578063f31fdad4146104c5578063f74143a6146104d8578063fe5b3e3b146104f9578063ff9810991461052757600080fd5b8063b88d4fde14610471578063c87b56dd14610484578063df6f321e14610497578063e985e9c51461049f57600080fd5b806395d89b41116100e957806395d89b411461040f578063a22cb46514610417578063a2e345861461042a578063af5f58051461045157600080fd5b806370a08231146103d0578063715018a6146103e35780638da5cb5b146103eb5780639355d419146103fc57600080fd5b806323b872dd11610192578063629058ca11610161578063629058ca146103565780636352211e1461037b57806365e71ae81461038e5780636b2f65b0146103a157600080fd5b806323b872dd1461031f5780633deef7721461033257806340dee0b51461033b57806342842e0e1461034357600080fd5b8063069dab8f116101ce578063069dab8f146102a957806306fdde03146102cc578063081812fc146102e1578063095ea7b31461030c57600080fd5b806301ddf0701461020057806301ffc9a71461021557806303c7881a1461023d5780630657537b14610288575b600080fd5b61021361020e366004612229565b610555565b005b610228610223366004612258565b610575565b60405190151581526020015b60405180910390f35b61027661024b366004612291565b6000918252600b602090815260408084206001600160a01b0393909316845291905290205460ff1690565b60405160ff9091168152602001610234565b61029b61029636600461231a565b6105a0565b604051908152602001610234565b6102bc6102b73660046123aa565b610897565b6040516102349493929190612415565b6102d461094c565b6040516102349190612446565b6102f46102ef366004612229565b6109de565b6040516001600160a01b039091168152602001610234565b61021361031a366004612459565b610a07565b61021361032d366004612483565b610a16565b61029b600e5481565b600c5461029b565b610213610351366004612483565b610aa6565b610369610364366004612229565b610ac6565b604051610234969594939291906124bf565b6102f4610389366004612229565b610c7c565b61029b61039c366004612229565b610c87565b6102286103af3660046123aa565b6001600160a01b031660009081526009602052604090206003015460ff1690565b61029b6103de3660046123aa565b610ca8565b610213610cf0565b6007546001600160a01b03166102f4565b61021361040a366004612518565b610d04565b6102d4610e5b565b61021361042536600461255a565b610e6a565b61043d610438366004612229565b610e75565b604051610234989796959493929190612596565b61046461045f366004612229565b610fdd565b604051610234919061263f565b61021361047f366004612668565b611154565b6102d4610492366004612229565b61116c565b61046461127d565b6102286104ad366004612744565b6112d4565b6102136104c03660046123aa565b611302565b6102136104d3366004612229565b61133d565b6104eb6104e6366004612229565b611350565b60405161023492919061276e565b610276610507366004612291565b600b60209081526000928352604080842090915290825290205460ff1681565b61053a610535366004612229565b61174c565b60408051938452602084019290925290820152606001610234565b61055d6117ad565b6105688160016117d7565b6105726001600855565b50565b60006001600160e01b03198216632483248360e11b148061059a575061059a826119bd565b92915050565b3360009081526009602052604081206003015460ff166105d35760405163aba4733960e01b815260040160405180910390fd5b8515806105de575083155b156105fc5760405163ecd7b0d160e01b815260040160405180910390fd5b8263ffffffff168263ffffffff1611610628576040516332118fdb60e21b815260040160405180910390fd5b600d8054906000610638836127db565b9190505590506106483382611a0d565b6106888188888080601f016020809104026020016040519081016040528093929190818152602001838380828437600092019190915250611a2792505050565b604051806101000160405280336001600160a01b0316815260200188888080601f016020809104026020016040519081016040528093929190818152602001838380828437600092019190915250505090825250604080516020601f890181900481028201810190925287815291810191908890889081908401838280828437600092018290525093855250505063ffffffff86811660208085019190915290861660408085019190915260608401839052608084018390524260a090940193909352848252600a8152919020825181546001600160a01b0319166001600160a01b039091161781559082015160018201906107849082612874565b50604082015160028201906107999082612874565b506060820151600382018054608085015163ffffffff9081166401000000000267ffffffffffffffff1990921693169290921791909117905560a0820151600482015560c0820151600582015560e090910151600690910155600c8054600181019091557fdf6966c971051c3d54ec59162606531493a51404a002842f56009d7e5cf4a8c701819055336000908152600960205260408120600201805491610840836127db565b9190505550336001600160a01b0316817fc1e924e56b5bfef6d0fa3a283cdcc66094781f66437dae4f3de6d9f09aaf897f87878b8b604051610885949392919061295d565b60405180910390a39695505050505050565b6009602052600090815260409020805481906108b2906127f4565b80601f01602080910402602001604051908101604052809291908181526020018280546108de906127f4565b801561092b5780601f106109005761010080835404028352916020019161092b565b820191906000526020600020905b81548152906001019060200180831161090e57829003601f168201915b50505050600183015460028401546003909401549293909290915060ff1684565b60606000805461095b906127f4565b80601f0160208091040260200160405190810160405280929190818152602001828054610987906127f4565b80156109d45780601f106109a9576101008083540402835291602001916109d4565b820191906000526020600020905b8154815290600101906020018083116109b757829003601f168201915b5050505050905090565b60006109e982611a77565b506000828152600460205260409020546001600160a01b031661059a565b610a12828233611ab0565b5050565b6001600160a01b038216610a4557604051633250574960e11b8152600060048201526024015b60405180910390fd5b6000610a52838333611abd565b9050836001600160a01b0316816001600160a01b031614610aa0576040516364283d7b60e01b81526001600160a01b0380861660048301526024820184905282166044820152606401610a3c565b50505050565b610ac183838360405180602001604052806000815250611154565b505050565b6000606080828080861580610add5750600d548710155b15610afb5760405163880e286560e01b815260040160405180910390fd5b6000878152600a6020526040902080546003820154600583015460048401546001600160a01b03909316926001850192600286019263ffffffff808316936401000000009093041691610b4e919061298f565b848054610b5a906127f4565b80601f0160208091040260200160405190810160405280929190818152602001828054610b86906127f4565b8015610bd35780601f10610ba857610100808354040283529160200191610bd3565b820191906000526020600020905b815481529060010190602001808311610bb657829003601f168201915b50505050509450838054610be6906127f4565b80601f0160208091040260200160405190810160405280929190818152602001828054610c12906127f4565b8015610c5f5780601f10610c3457610100808354040283529160200191610c5f565b820191906000526020600020905b815481529060010190602001808311610c4257829003601f168201915b505050505093509650965096509650965096505091939550919395565b600061059a82611a77565b600c8181548110610c9757600080fd5b600091825260209091200154905081565b60006001600160a01b038216610cd4576040516322718ad960e21b815260006004820152602401610a3c565b506001600160a01b031660009081526003602052604090205490565b610cf8611bb6565b610d026000611be3565b565b3360009081526009602052604090206003015460ff1615610d3857604051630ea075bf60e21b815260040160405180910390fd5b6000819003610d5a5760405163ecd7b0d160e01b815260040160405180910390fd5b604051806080016040528083838080601f01602080910402602001604051908101604052809392919081815260200183838082843760009201829052509385525050426020808501919091526040808501849052600160609095019490945233835260099052502081518190610dd09082612874565b5060208201516001820155604082015160028201556060909101516003909101805460ff1916911515919091179055600e8054906000610e0f836127db565b9190505550336001600160a01b03167fd4fd8fd455c3fdfe36126d7de16d1f208385873ff3250ddf3bc9b833ba2b7e358383604051610e4f9291906129b6565b60405180910390a25050565b60606001805461095b906127f4565b610a12338383611c35565b600a60205260009081526040902080546001820180546001600160a01b039092169291610ea1906127f4565b80601f0160208091040260200160405190810160405280929190818152602001828054610ecd906127f4565b8015610f1a5780601f10610eef57610100808354040283529160200191610f1a565b820191906000526020600020905b815481529060010190602001808311610efd57829003601f168201915b505050505090806002018054610f2f906127f4565b80601f0160208091040260200160405190810160405280929190818152602001828054610f5b906127f4565b8015610fa85780601f10610f7d57610100808354040283529160200191610fa8565b820191906000526020600020905b815481529060010190602001808311610f8b57829003601f168201915b50505050600383015460048401546005850154600690950154939463ffffffff80841695640100000000909404169350909188565b600c546060906000819003611002575050604080516000815260208101909152919050565b8083111561100e578092505b8267ffffffffffffffff81111561102757611027612652565b604051908082528060200260200182016040528015611050578160200160208202803683370190505b5091506000444233846040516020016110949493929190938452602084019290925260601b6bffffffffffffffffffffffff19166040830152605482015260740190565b6040516020818303038152906040528051906020012060001c905060005b8481101561114c5760008383836040516020016110d9929190918252602082015260400190565b6040516020818303038152906040528051906020012060001c6110fc91906129ca565b9050600c8181548110611111576111116129ec565b906000526020600020015485838151811061112e5761112e6129ec565b60209081029190910101525080611144816127db565b9150506110b2565b505050919050565b61115f848484610a16565b610aa03385858585611cd4565b606061117782611a77565b5060008281526006602052604081208054611191906127f4565b80601f01602080910402602001604051908101604052809291908181526020018280546111bd906127f4565b801561120a5780601f106111df5761010080835404028352916020019161120a565b820191906000526020600020905b8154815290600101906020018083116111ed57829003601f168201915b50505050509050600061122860408051602081019091526000815290565b9050805160000361123a575092915050565b81511561126c578082604051602001611254929190612a02565b60405160208183030381529060405292505050919050565b61127584611dff565b949350505050565b6060600c8054806020026020016040519081016040528092919081815260200182805480156109d457602002820191906000526020600020905b8154815260200190600101908083116112b7575050505050905090565b6001600160a01b03918216600090815260056020908152604080832093909416825291909152205460ff1690565b61130a611bb6565b6001600160a01b03811661133457604051631e4fbdf760e01b815260006004820152602401610a3c565b61057281611be3565b6113456117ad565b6105688160006117d7565b600c546060908190600081900361138157505060408051600080825260208201908152818301909252939092509050565b8084111561138d578093505b60008167ffffffffffffffff8111156113a8576113a8612652565b6040519080825280602002602001820160405280156113d1578160200160208202803683370190505b50905060008267ffffffffffffffff8111156113ef576113ef612652565b604051908082528060200260200182016040528015611418578160200160208202803683370190505b50905060005b838110156114bd576000600c828154811061143b5761143b6129ec565b906000526020600020015490508084838151811061145b5761145b6129ec565b6020908102919091018101919091526000828152600a90915260409020600581015460049091015461148d919061298f565b83838151811061149f5761149f6129ec565b602090810291909101015250806114b5816127db565b91505061141e565b5060005b8681101561162c578060006114d7826001612a31565b90505b85811015611532578382815181106114f4576114f46129ec565b602002602001015184828151811061150e5761150e6129ec565b60200260200101511315611520578091505b8061152a816127db565b9150506114da565b508181146116195783818151811061154c5761154c6129ec565b6020026020010151848381518110611566576115666129ec565b6020026020010151858481518110611580576115806129ec565b60200260200101868481518110611599576115996129ec565b60200260200101828152508281525050508281815181106115bc576115bc6129ec565b60200260200101518383815181106115d6576115d66129ec565b60200260200101518484815181106115f0576115f06129ec565b60200260200101858481518110611609576116096129ec565b6020908102919091010191909152525b5080611624816127db565b9150506114c1565b508567ffffffffffffffff81111561164657611646612652565b60405190808252806020026020018201604052801561166f578160200160208202803683370190505b5094508567ffffffffffffffff81111561168b5761168b612652565b6040519080825280602002602001820160405280156116b4578160200160208202803683370190505b50935060005b86811015611743578281815181106116d4576116d46129ec565b60200260200101518682815181106116ee576116ee6129ec565b60200260200101818152505081818151811061170c5761170c6129ec565b6020026020010151858281518110611726576117266129ec565b60209081029190910101528061173b816127db565b9150506116ba565b50505050915091565b6000808083158061175f5750600d548410155b1561177d5760405163880e286560e01b815260040160405180910390fd5b6000848152600a602052604090206004810154600582015461179f818361298f565b935093509350509193909250565b6002600854036117d057604051633ee5aeb560e01b815260040160405180910390fd5b6002600855565b8115806117e65750600d548210155b156118045760405163880e286560e01b815260040160405180910390fd5b6000828152600b6020908152604080832033845290915281205460ff16908261182e576002611831565b60015b90508060ff168260ff16036118595760405163f64a7ee560e01b815260040160405180910390fd5b6000848152600a602052604081209060ff841690036118ea5783156118945760048101805490600061188a836127db565b91905055506118ac565b6005810180549060006118a6836127db565b91905055505b6040518415158152339086907ff2913dbe661ee2acc4a046d8fbcdc792373bda34c41c6086484b5345e5785e5f9060200160405180910390a361198c565b83156119235760058101805490600061190283612a44565b9091555050600481018054906000611919836127db565b9190505550611952565b60048101805490600061193583612a44565b909155505060058101805490600061194c836127db565b91905055505b6040518415158152339086907f2f475a610e396a450e463b731fb287e847558aca846b324e60cb06b0da0e8c699060200160405180910390a35b506000938452600b60209081526040808620338752909152909320805460ff191660ff909416939093179092555050565b60006001600160e01b031982166380ac58cd60e01b14806119ee57506001600160e01b03198216635b5e139f60e01b145b8061059a57506301ffc9a760e01b6001600160e01b031983161461059a565b610a12828260405180602001604052806000815250611e74565b6000828152600660205260409020611a3f8282612874565b506040518281527ff8e1a15aba9398e019f0b49df1a4fde98ee17ae345cb5f6b5e2c27f5033e8ce79060200160405180910390a15050565b6000818152600260205260408120546001600160a01b03168061059a57604051637e27328960e01b815260048101849052602401610a3c565b610ac18383836001611e8c565b6000828152600260205260408120546001600160a01b0390811690831615611aea57611aea818486611f92565b6001600160a01b03811615611b2857611b07600085600080611e8c565b6001600160a01b038116600090815260036020526040902080546000190190555b6001600160a01b03851615611b57576001600160a01b0385166000908152600360205260409020805460010190555b60008481526002602052604080822080546001600160a01b0319166001600160a01b0389811691821790925591518793918516917fddf252ad1be2c89b69c2b068fc378daa952ba7f163c4a11628f55a4df523b3ef91a4949350505050565b6007546001600160a01b03163314610d025760405163118cdaa760e01b8152336004820152602401610a3c565b600780546001600160a01b038381166001600160a01b0319831681179093556040519116919082907f8be0079c531659141344cd1fd0a4f28419497f9722a3daafe3b4186f6b6457e090600090a35050565b6001600160a01b038216611c6757604051630b61174360e31b81526001600160a01b0383166004820152602401610a3c565b6001600160a01b03838116600081815260056020908152604080832094871680845294825291829020805460ff191686151590811790915591519182527f17307eab39ab6107e8899845ad3d59bd9653f200f220920489ca2b5937696c31910160405180910390a3505050565b6001600160a01b0383163b15611df857604051630a85bd0160e11b81526001600160a01b0384169063150b7a0290611d16908890889087908790600401612a5b565b6020604051808303816000875af1925050508015611d51575060408051601f3d908101601f19168201909252611d4e91810190612a98565b60015b611dba573d808015611d7f576040519150601f19603f3d011682016040523d82523d6000602084013e611d84565b606091505b508051600003611db257604051633250574960e11b81526001600160a01b0385166004820152602401610a3c565b805160208201fd5b6001600160e01b03198116630a85bd0160e11b14611df657604051633250574960e11b81526001600160a01b0385166004820152602401610a3c565b505b5050505050565b6060611e0a82611a77565b506000611e2260408051602081019091526000815290565b90506000815111611e425760405180602001604052806000815250611e6d565b80611e4c84611ff6565b604051602001611e5d929190612a02565b6040516020818303038152906040525b9392505050565b611e7e8383612089565b610ac1336000858585611cd4565b8080611ea057506001600160a01b03821615155b15611f62576000611eb084611a77565b90506001600160a01b03831615801590611edc5750826001600160a01b0316816001600160a01b031614155b8015611eef5750611eed81846112d4565b155b15611f185760405163a9fbf51f60e01b81526001600160a01b0384166004820152602401610a3c565b8115611f605783856001600160a01b0316826001600160a01b03167f8c5be1e5ebec7d5bd14f71427d1e84f3dd0314c0f7b2291e5b200ac8c7c3b92560405160405180910390a45b505b5050600090815260046020526040902080546001600160a01b0319166001600160a01b0392909216919091179055565b611f9d8383836120ee565b610ac1576001600160a01b038316611fcb57604051637e27328960e01b815260048101829052602401610a3c565b60405163177e802f60e01b81526001600160a01b038316600482015260248101829052604401610a3c565b6060600061200383612151565b600101905060008167ffffffffffffffff81111561202357612023612652565b6040519080825280601f01601f19166020018201604052801561204d576020820181803683370190505b5090508181016020015b600019016f181899199a1a9b1b9c1cb0b131b232b360811b600a86061a8153600a850494508461205757509392505050565b6001600160a01b0382166120b357604051633250574960e11b815260006004820152602401610a3c565b60006120c183836000611abd565b90506001600160a01b03811615610ac1576040516339e3563760e11b815260006004820152602401610a3c565b60006001600160a01b038316158015906112755750826001600160a01b0316846001600160a01b03161480612128575061212884846112d4565b806112755750506000908152600460205260409020546001600160a01b03908116911614919050565b60008072184f03e93ff9f4daa797ed6e38ed64bf6a1f0160401b83106121905772184f03e93ff9f4daa797ed6e38ed64bf6a1f0160401b830492506040015b6d04ee2d6d415b85acef810000000083106121bc576d04ee2d6d415b85acef8100000000830492506020015b662386f26fc1000083106121da57662386f26fc10000830492506010015b6305f5e10083106121f2576305f5e100830492506008015b612710831061220657612710830492506004015b60648310612218576064830492506002015b600a831061059a5760010192915050565b60006020828403121561223b57600080fd5b5035919050565b6001600160e01b03198116811461057257600080fd5b60006020828403121561226a57600080fd5b8135611e6d81612242565b80356001600160a01b038116811461228c57600080fd5b919050565b600080604083850312156122a457600080fd5b823591506122b460208401612275565b90509250929050565b60008083601f8401126122cf57600080fd5b50813567ffffffffffffffff8111156122e757600080fd5b6020830191508360208285010111156122ff57600080fd5b9250929050565b803563ffffffff8116811461228c57600080fd5b6000806000806000806080878903121561233357600080fd5b863567ffffffffffffffff8082111561234b57600080fd5b6123578a838b016122bd565b9098509650602089013591508082111561237057600080fd5b5061237d89828a016122bd565b9095509350612390905060408801612306565b915061239e60608801612306565b90509295509295509295565b6000602082840312156123bc57600080fd5b611e6d82612275565b60005b838110156123e05781810151838201526020016123c8565b50506000910152565b600081518084526124018160208601602086016123c5565b601f01601f19169290920160200192915050565b60808152600061242860808301876123e9565b60208301959095525060408101929092521515606090910152919050565b602081526000611e6d60208301846123e9565b6000806040838503121561246c57600080fd5b61247583612275565b946020939093013593505050565b60008060006060848603121561249857600080fd5b6124a184612275565b92506124af60208501612275565b9150604084013590509250925092565b6001600160a01b038716815260c0602082018190526000906124e3908301886123e9565b82810360408401526124f581886123e9565b63ffffffff96871660608501529490951660808301525060a00152949350505050565b6000806020838503121561252b57600080fd5b823567ffffffffffffffff81111561254257600080fd5b61254e858286016122bd565b90969095509350505050565b6000806040838503121561256d57600080fd5b61257683612275565b91506020830135801515811461258b57600080fd5b809150509250929050565b6001600160a01b0389168152610100602082018190526000906125bb8382018b6123e9565b905082810360408401526125cf818a6123e9565b63ffffffff98891660608501529690971660808301525060a081019390935260c083019190915260e090910152949350505050565b600081518084526020808501945080840160005b8381101561263457815187529582019590820190600101612618565b509495945050505050565b602081526000611e6d6020830184612604565b634e487b7160e01b600052604160045260246000fd5b6000806000806080858703121561267e57600080fd5b61268785612275565b935061269560208601612275565b925060408501359150606085013567ffffffffffffffff808211156126b957600080fd5b818701915087601f8301126126cd57600080fd5b8135818111156126df576126df612652565b604051601f8201601f19908116603f0116810190838211818310171561270757612707612652565b816040528281528a602084870101111561272057600080fd5b82602086016020830137600060208483010152809550505050505092959194509250565b6000806040838503121561275757600080fd5b61276083612275565b91506122b460208401612275565b6040815260006127816040830185612604565b82810360208481019190915284518083528582019282019060005b818110156127b85784518352938301939183019160010161279c565b5090979650505050505050565b634e487b7160e01b600052601160045260246000fd5b6000600182016127ed576127ed6127c5565b5060010190565b600181811c9082168061280857607f821691505b60208210810361282857634e487b7160e01b600052602260045260246000fd5b50919050565b601f821115610ac157600081815260208120601f850160051c810160208610156128555750805b601f850160051c820191505b81811015611df657828155600101612861565b815167ffffffffffffffff81111561288e5761288e612652565b6128a28161289c84546127f4565b8461282e565b602080601f8311600181146128d757600084156128bf5750858301515b600019600386901b1c1916600185901b178555611df6565b600085815260208120601f198616915b82811015612906578886015182559484019460019091019084016128e7565b50858210156129245787850151600019600388901b60f8161c191681555b5050505050600190811b01905550565b81835281816020850137506000828201602090810191909152601f909101601f19169091010190565b604081526000612971604083018688612934565b8281036020840152612984818587612934565b979650505050505050565b81810360008312801583831316838312821617156129af576129af6127c5565b5092915050565b602081526000611275602083018486612934565b6000826129e757634e487b7160e01b600052601260045260246000fd5b500690565b634e487b7160e01b600052603260045260246000fd5b60008351612a148184602088016123c5565b835190830190612a288183602088016123c5565b01949350505050565b8082018082111561059a5761059a6127c5565b600081612a5357612a536127c5565b506000190190565b6001600160a01b0385811682528416602082015260408101839052608060608201819052600090612a8e908301846123e9565b9695505050505050565b600060208284031215612aaa57600080fd5b8151611e6d8161224256fea2646970667358221220c531f33b284dd9164a1099e11e86fe4991fd34a52d4b2465bb547a08bde3bada64736f6c63430008140033",
  "linkReferences": {},
  "deployedLinkReferences": {}
}